:020000040800F2
:1000000000100020D90B0008810B0008890B0008A4
:1000100000000000000000000000000000000000E0
:10002000000000000000000000000000910B00082C
:1000300000000000000000009B0B0008A50B00085A
:10004000290C000800000000290C0008290C0008F9
:10005000290C0008290C0008290C0008290C0008AC
:1000600000000000290C0008290C0008290C0008D9
:10007000B50B0008290C0008290C0008000000003E
:10008000290C00080000000000000000290C0008F6
:1000900000000000290C0008290C0008290C0008A9
:1000A00000000000290C000800000000290C0008D6
:1000B0000000000000000000000000000000000040
:1000C00010B5064C2378002B07D1054B002B02D02E
:1000D000044800E000BF0123237010BD340000205D
:1000E0000000000078250008044B10B5002B03D059
:1000F0000349044800E000BF10BDC04600000000F6
:100100003800002078250008002243088B4274D371
:1001100003098B425FD3030A8B4244D3030B8B4208
:1001200028D3030C8B420DD3FF22090212BA030C11
:100130008B4202D31212090265D0030B8B4219D3F2
:1001400000E0090AC30B8B4201D3CB03C01A524112
:10015000830B8B4201D38B03C01A5241430B8B425A
:1001600001D34B03C01A5241030B8B4201D30B0343
:10017000C01A5241C30A8B4201D3CB02C01A52416A
:10018000830A8B4201D38B02C01A5241430A8B422D
:1001900001D34B02C01A5241030A8B4201D30B0216
:1001A000C01A5241CDD2C3098B4201D3CB01C01A30
:1001B000524183098B4201D38B01C01A524143093A
:1001C0008B4201D34B01C01A524103098B4201D328
:1001D0000B01C01A5241C3088B4201D3CB00C01A95
:1001E000524183088B4201D38B00C01A524143080D
:1001F0008B4201D34B00C01A5241411A00D2014632
:10020000524110467047FFE701B5002000F006F8A4
:1002100002BDC0460029F7D076E770477047C04658
:1002200090B589B000AF040008001100FB1D221C2E
:100230001A70BB1D021C1A707B1D0A1C1A70002349
:10024000FB613AE0CF4AFB69D3181B78012B07D139
:10025000BB1D1A789023DB058021180001F005FDF5
:10026000C84AFB69D3181B78022B07D1FB1D1A78EB
:100270009023DB058021180001F0F7FCC14AFB69DF
:10028000D3181B78032B07D17B1D1A789023DB052D
:100290008021180001F0E9FC9023DB0501224021B8
:1002A000180001F0E2FC9023DB0500224021180039
:1002B00001F0DBFCFB690133FB61FB69072BC1DD4E
:1002C0009023DB0500220821180001F0CEFC01205C
:1002D00000F010FD9023DB0501220821180001F039
:1002E000C4FC0023BB613AE0A74ABB69D3181B7862
:1002F000012B07D1BB1D1A789023DB058021180044
:1003000001F0B3FCA04ABB69D3181B78022B07D1BC
:10031000FB1D1A789023DB058021180001F0A5FC55
:10032000994ABB69D3181B78032B07D17B1D1A7818
:100330009023DB058021180001F097FC9023DB055A
:1003400001224021180001F090FC9023DB050022DF
:100350004021180001F089FCBB690133BB61BB6916
:10036000072BC1DD9023DB0500222021180001F0BE
:100370007CFC012000F0BEFC9023DB050122202143
:10038000180001F072FC00237B613AE07F4A7B6930
:10039000D3181B78012B07D1BB1D1A789023DB05DE
:1003A0008021180001F061FC784A7B69D3181B7822
:1003B000022B07D1FB1D1A789023DB058021180042
:1003C00001F053FC714A7B69D3181B78032B07D1CA
:1003D0007B1D1A789023DB058021180001F045FC75
:1003E0009023DB0501224021180001F03EFC902300
:1003F000DB0500224021180001F037FC7B69013346
:100400007B617B69072BC1DD802399009023DB058D
:100410000022180001F029FC012000F06BFC802371
:1004200099009023DB050122180001F01EFC002337
:100430003B613AE0564A3B69D3181B78012B07D140
:10044000BB1D1A789023DB058021180001F00DFCFC
:100450004F4A3B69D3181B78022B07D1FB1D1A7832
:100460009023DB058021180001F0FFFB484A3B691F
:10047000D3181B78032B07D17B1D1A789023DB053B
:100480008021180001F0F1FB9023DB0501224021BF
:10049000180001F0EAFB9023DB0500224021180040
:1004A00001F0E3FB3B6901333B613B69072BC1DD95
:1004B0008023D9009023DB050022180001F0D5FB32
:1004C000012000F017FC8023D9009023DB050122D6
:1004D000180001F0CAFB0023FB603AE02D4AFB68DC
:1004E000D3181B78012B07D1BB1D1A789023DB058D
:1004F0008021180001F0B9FB264AFB68D3181B784D
:10050000022B07D1FB1D1A789023DB0580211800F0
:1005100001F0ABFB1F4AFB68D3181B78032B07D1F4
:100520007B1D1A789023DB058021180001F09DFBCC
:100530009023DB0501224021180001F096FB902357
:10054000DB0500224021180001F08FFBFB6801331E
:10055000FB60FB68072BC1DD9023DB050022102127
:10056000180001F082FB012000F0C4FB9023DB05A2
:1005700001221021180001F078FBC046BD4609B0E9
:1005800090BDC046000000200800002010000020A0
:10059000180000202000002080B500AF00F0A0FB74
:1005A00002002B4B1B68D31A2A4A1288934213D39A
:1005B000294B1B78002B0FD1002200210120FFF7CF
:1005C0002FFE254B1B780133DAB2234B1A7000F053
:1005D00087FB02001E4B1A6000F082FB02001C4BDE
:1005E0001B68D31A1B4A1288934213D31A4B1B78E9
:1005F000012B0FD1002201210020FFF711FE164B25
:100600001B780133DAB2144B1A7000F069FB020058
:100610000F4B1A6000F064FB02000D4B1B68D31AED
:100620000C4A1288934210D30B4B1B78022B0CD12F
:10063000012200210020FFF7F3FD074B00221A7072
:1006400000F04EFB0200024B1A60C046BD4680BD62
:1006500098000020940000209C00002080B582B00B
:1006600000AF786001235A427B681100180000F047
:10067000A5FC7B68180000F0ABFD03009AB2054BA7
:100680001A807B68180000F031FDC046BD4602B0FC
:1006900080BDC0469400002080B582B000AF00F05D
:1006A000C5FA00F0E3F800F08BF900F02FF9002311
:1006B0007B6017E09023DB0500228021180001F009
:1006C000D4FA9023DB0501224021180001F0CDFA75
:1006D0009023DB0500224021180001F0C6FA7B6858
:1006E00001337B607B68072BE4DD9023DB05002270
:1006F0000821180001F0B9FA9023DB05002220211F
:10070000180001F0B2FA802399009023DB05002243
:10071000180001F0AAFA8023D9009023DB050022FB
:10072000180001F0A2FA9023DB0500221021180026
:1007300001F09BFA9023DB0501220821180001F04B
:1007400094FA9023DB0501222021180001F08DFA94
:10075000802399009023DB050122180001F085FA1F
:100760008023D9009023DB050122180001F07DFAD7
:100770009023DB0501221021180001F076FA0120F8
:1007800000F0B8FA334B180000F05CFF314B180052
:1007900000F0ACFC00F0A4FA02002F4B1A6090238A
:1007A000DB050121180001F043FA031E06D12B4B93
:1007B00001221A702A4B00221A7002E0274B0022F5
:1007C0001A709023DB050221180001F031FA031E94
:1007D00006D1244B01221A70214B00221A7002E02C
:1007E000204B00221A709023DB050421180001F031
:1007F0001FFA031E06D11C4B01221A70184B00224F
:100800001A7002E0184B00221A70144B1B78012B4F
:1008100007D0154B1B78012B03D0124B1B78012BF3
:1008200008D1104B18780D4B19780F4B1B781A0014
:10083000FFF7F6FC094B1B78002BB0D10A4B1B7855
:10084000002BACD1074B1B78002BA8D1FFF7A4FEDF
:10085000A5E7C0465000002098000020910000202D
:100860009C000020900000209200002090B591B0E4
:1008700000AF10243B19180030231A00002101F0AA
:100880004FFE3B00180010231A00002101F048FE23
:1008900021007B1812221A607B180122DA607B1873
:1008A00001225A617B1810221A617B1810229A616A
:1008B0007B1802221A627B1800225A627B18A0223F
:1008C00092039A627B180022DA627B18180001F00A
:1008D000E9F9031E01D000F0DBF83B0007221A60A3
:1008E0003B0002225A603B0000229A603B0000223B
:1008F000DA603B000121180001F0EEFC031E01D07C
:1009000000F0C6F8C046BD4611B090BD80B584B0B9
:1009100000AF3B1D18000C231A00002101F000FE5F
:10092000254B264A1A60244B00225A60224B002293
:100930009A60214B0022DA601F4B01221A611E4B84
:1009400004225A611C4B00221A761B4B00225A7655
:10095000194B00229A76184B0022DA76164BC222E7
:10096000FF32DA61144B00221A62134B2422002159
:100970009954114B01229A620F4B180000F0DEF9D6
:10098000031E01D000F084F83B1D08221A603B1DB5
:10099000802252015A603B1D02229A603A1D064B8A
:1009A0001100180000F0D4FC031E01D000F070F814
:1009B000C046BD4604B080BD500000200024014068
:1009C00090B589B000AF0C243B19180014231A000D
:1009D000002101F0A5FD2D4B5A692C4B8021C90344
:1009E0000A435A61294B5A698023DB031340BB60D9
:1009F000BB68264B5A69254B802189020A435A61FC
:100A0000224B5A6980239B0213407B607B681F4BFB
:100A10005A691E4B8021C9020A435A611B4B5A690D
:100A20008023DB0213403B603B68DF23D900902327
:100A3000DB050122180001F018F93B1907221A60A2
:100A40003B1900225A603B1900229A603A19902300
:100A5000DB051100180000F07BFF21007B18DF226E
:100A6000D2001A607B1801225A607B1800229A601B
:100A70007B180022DA607A189023DB051100180039
:100A800000F066FFC046BD4609B090BD00100240B0
:100A900080B500AF72B6C046C046FDE780B582B0F3
:100AA00000AF0F4B9A690E4B01210A439A610C4B20
:100AB0009B69012213407B607B68094BDA69084B14
:100AC000802149050A43DA61054BDA6980235B0519
:100AD00013403B603B68C046BD4602B080BDC04687
:100AE0000010024090B58BB000AF786014243B1921
:100AF000180014231A00002101F012FD7B681B6806
:100B00001C4A934232D11C4B9A691B4B80218900AD
:100B10000A439A61184B9A6980239B0013403B61FA
:100B20003B69154B5A69144B8021C9020A435A612B
:100B3000114B5A698023DB021340FB60FB683B19B1
:100B400001221A603B1903225A603B1900229A6065
:100B50003B190A4A1900100000F0FAFE0022022197
:100B60000C2000F0C3FE0C2000F0D5FEC046BD46B0
:100B70000BB090BD0024014000100240000400486A
:100B800080B500AFC046FDE780B500AFC046FDE7C9
:100B900080B500AFC046BD4680BD80B500AFC04641
:100BA000BD4680BD80B500AF00F088F8C046BD46A8
:100BB00080BD000080B500AF034B180000F014FBAF
:100BC000C046BD4680BDC0465000002080B500AF85
:100BD000C046BD4680BD00000D488546FFF7F6FFC4
:100BE0000C480D490D4A002302E0D458C450043388
:100BF000C4188C42F9D30A4A0A4C002301E013605E
:100C00000432A242FBD301F093FCFFF745FDFEE75F
:100C1000001000200000002034000020C82500083B
:100C200034000020A4000020FEE7000080B500AFE3
:100C3000074B1A68064B10210A431A60032000F084
:100C400009F8FFF72BFF00231800BD4680BDC04602
:100C50000020024090B583B000AF7860144B1C6850
:100C6000144B1B781900FA239800FFF74DFA030084
:100C700019002000FFF748FA0300180000F05BFE9F
:100C8000031E01D001230FE07B68032B0BD879688A
:100C900001235B420022180000F028FE064B7A6810
:100CA0001A60002300E001231800BD4603B090BD88
:100CB00028000020300000202C00002080B500AF6C
:100CC000054B1B781A00054B1B68D218034B1A60A2
:100CD000C046BD4680BDC04630000020A0000020B8
:100CE00080B500AF024B1B681800BD4680BDC046F2
:100CF000A000002080B584B000AF7860FFF7F0FF5F
:100D00000300BB607B68FB60FB68013305D00A4BC6
:100D10001B781A00FB689B18FB60C046FFF7E0FFDA
:100D20000200BB68D31AFA689A42F7D8C046C04698
:100D3000BD4604B080BDC0463000002080B584B000
:100D400000AF78600F23FB1800221A700023BB60ED
:100D50007B68002B01D1012325E17B689B6B002B75
:100D60000AD17B680022DA637B683422002199541F
:100D70007B681800FFF7B6FE7B689B6B1022134060
:100D800000D003E10F23FB181B78002B00D0FDE0FF
:100D90007B681B689B680422134000D0F6E07B68E8
:100DA0009B6B834A134002221A437B689A637B68D9
:100DB0001B689B6803221340012B12D17B681B68C0
:100DC0001B6801221340012B09D07B681B68DA687D
:100DD00080231B021A4080231B029A4201D1012367
:100DE00000E00023002B16D17B681B68DB6818220B
:100DF000934319007B689A687B681B680A43DA6032
:100E00007B681B681B699B0099087B685A687B6834
:100E10001B680A431A617B681B68DA687B681B6879
:100E200064490A40DA607B681B7E9A037B685B7EBC
:100E3000DB031A437B689B7E5B031A437B689B6AD8
:100E4000012B02D080235B0100E000231A437B6862
:100E5000DB681A437B681B69022B01D1042300E085
:100E600000231A437B6824215B5C5B001343BA6850
:100E70001343BB607B68DB7E012B15D17B689B7EB7
:100E8000002B05D1BB68802252021343BB600BE0EC
:100E90007B689B6B20221A437B689A637B68DB6BC1
:100EA00001221A437B68DA637B68DA69C223FF3365
:100EB0009A4207D07B68DA697B681B6A1343BA6879
:100EC0001343BB607B681B68D9687B681B68BA6882
:100ED0000A43DA607B68DA6A80235B059A421BD09A
:100EE0007B68DB6A012B17D07B68DB6A022B13D08F
:100EF0007B68DB6A032B0FD07B68DB6A042B0BD08B
:100F00007B68DB6A052B07D07B68DB6A062B03D086
:100F10007B68DB6A072B12D17B681B685A697B6888
:100F20001B6807218A435A617B681B6859697B6883
:100F3000DB6A07221A407B681B680A435A617B6898
:100F40001B68DB681C4A1340BA689A420BD17B6865
:100F50000022DA637B689B6B0322934301221A43CE
:100F60007B689A631CE07B689B6B12229343102280
:100F70001A437B689A637B68DB6B01221A437B68A8
:100F8000DA630F23FB1801221A7009E07B689B6B60
:100F900010221A437B689A630F23FB1801221A70F0
:100FA0000F23FB181B781800BD4604B080BDC04657
:100FB000FDFEFFFF1902FEFFE7FF3F8380B584B00F
:100FC00000AF786039607B685B69082B02D1082329
:100FD000FB6014E07B681B68DB6801221340012B77
:100FE0000BD17B689B6B20221A437B689A637B68DA
:100FF000342200219954012371E00C23FB60FFF798
:101000006FFE0300BB601FE03B6801331CD03B68F0
:10101000002B07D0FFF764FE0200BB68D31A3A68C2
:101020009A4211D27B681B681B68FA6813400BD187
:101030007B689B6B04221A437B689A637B6834222B
:101040000021995403234AE07B681B681B68FA68F7
:101050001340D9D07B689B6B802292001A437B6837
:101060009A637B681B68DA68C0231B0113402DD18B
:101070007B689B7E002B29D17B681B681B6808223C
:101080001340082B22D17B681B689B680422134005
:1010900010D17B681B685A687B681B680C218A43E7
:1010A0005A607B689B6B104A134001221A437B688D
:1010B0009A630BE07B689B6B20221A437B689A63E0
:1010C0007B68DB6B01221A437B68DA637B681B7EDB
:1010D000002B03D17B681B680C221A6000231800C8
:1010E000BD4604B080BDC046FEFEFFFF90B585B092
:1010F00000AF78600F23FB1800221A707B681B6812
:101100009B680422134056D17B6834229B5C012BE0
:1011100001D1022356E07B683422012199547B6877
:101120005B7E012B07D00F23FC187B68180000F0B2
:1011300005FA030023700F23FB181B78002B3ED108
:101140007B689B6B214A1340802252001A437B68C4
:101150009A637B680022DA637B6834220021995409
:101160007B681B681C221A607B685B69082B10D1A6
:101170007B681B685A687B681B6804218A435A6035
:101180007B681B685A687B681B6818210A435A6091
:1011900008E07B681B685A687B681B681C210A434F
:1011A0005A60C0467B681B689A687B681B6804218C
:1011B0000A439A6003E00F23FB1802221A700F23E0
:1011C000FB181B781800BD4605B090BDFEF0FFFF70
:1011D00080B582B000AF78607B681B681B6C18001C
:1011E000BD4602B080BD000080B584B000AF78601D
:1011F0007B681B681B68FB607B681B685B68BB6067
:10120000FB680422134003D0BB680422134007D1BB
:10121000FB680822134049D0BB680822134045D020
:101220007B689B6B1022134006D17B689B6B8022EE
:1012300092001A437B689A637B681B68DA68C02354
:101240001B0113402AD17B689B7E002B26D1FB68B3
:101250000822134022D07B681B689B68042213403D
:1012600010D17B681B685A687B681B680C218A4315
:101270005A607B689B6B2D4A134001221A437B689E
:101280009A630BE07B689B6B20221A437B689A630E
:101290007B68DB6B01221A437B68DA637B6818008A
:1012A000FFF7DCF97B681B680C221A60FB68802260
:1012B000134012D0BB68802213400ED07B689B6B1A
:1012C000802252021A437B689A637B68180000F000
:1012D0002FF87B681B6880221A60FB68102213407D
:1012E00020D0BB68102213401CD07B689B6A012B66
:1012F00006D07B681B68DB6801221340012B0DD1EF
:101300007B68DB6B02221A437B68DA637B681B68AD
:1013100010221A607B68180000F012F87B681B68C6
:1013200010221A60C046BD4604B080BDFEFEFFFF1D
:1013300080B582B000AF7860C046BD4602B080BDC7
:1013400080B582B000AF7860C046BD4602B080BDB7
:1013500080B584B000AF786039600F23FB1800229D
:101360001A700023BB607B68DA6A80235B059A42AF
:1013700011D07B68DB6A012B0DD07B68DB6A022B06
:1013800009D07B68DB6A032B05D07B68DB6A042B02
:1013900001D07B68DB6A7B6834229B5C012B01D126
:1013A0000223BBE07B683422012199547B681B68CF
:1013B0009B680422134000D09FE03B685B68594A59
:1013C000934200D177E07B681B68996A3B681B6891
:1013D00001229A407B681B680A439A627B68DA6A3A
:1013E00080235B059A4237D07B68DB6A012B33D0C0
:1013F0007B68DB6A022B2FD07B68DB6A032B2BD048
:101400007B68DB6A042B27D07B68DB6A052B23D043
:101410007B68DB6A062B1FD07B68DB6A072B1BD03F
:101420003B689A687B681B685B6907210B409A429E
:1014300012D07B681B685A697B681B6807218A4346
:101440005A617B681B6859693B689B6807221A4090
:101450007B681B680A435A613B681B68102B03D0EA
:101460003B681B68112B52D12F4B19683B681B68D6
:10147000102B02D180231B0401E08023DB032A4AC6
:101480000B4313603B681B68102B40D1274B1B6834
:1014900027491800FEF738FE03001A0013009B00CE
:1014A0009B185B00BB6002E0BB68013BBB60BB6894
:1014B000002BF9D12BE07B681B689A6A3B681B689C
:1014C000012199400B00D9437B681B680A409A624E
:1014D0003B681B68102B03D03B681B68112B16D18F
:1014E000114B19683B681B68102B01D1114A00E0B1
:1014F000114A0D4B0A401A6009E07B689B6B202261
:101500001A437B689A630F23FB1801221A707B68C9
:101510003422002199540F23FB181B781800BD4674
:1015200004B080BD01100000082701402800002001
:1015300040420F00FFFF7FFFFFFFBFFF80B584B079
:1015400000AF78600023FB600023BB607B681B68F2
:101550009B6803221340012B12D17B681B681B6818
:1015600001221340012B09D07B681B68DA688023B5
:101570001B021A4080231B029A4201D1012300E082
:101580000023002B52D17B681B689B682A4A1340BA
:101590000DD07B689B6B10221A437B689A637B6833
:1015A000DB6B01221A437B68DA6301233FE07B682F
:1015B0001B689A687B681B6801210A439A601F4B6D
:1015C0001B681F491800FEF79FFD0300BB6002E087
:1015D000BB68013BBB60BB68002BF9D1FFF780FB08
:1015E0000300FB601BE0FFF77BFB0200FB68D31AE4
:1015F000022B14D97B681B681B6801221340012B46
:101600000DD07B689B6B10221A437B689A637B68C2
:10161000DB6B01221A437B68DA63012307E07B68F6
:101620001B681B6801221340012BDCD1002318002A
:10163000BD4604B080BDC0461700008028000020D1
:1016400040420F0080B586B000AF78601723FB18CA
:1016500000221A7000233B610023FB607B68342268
:101660009B5C012B01D102238DE07B683422012198
:1016700099547B681B689B6803221340012B12D18D
:101680007B681B681B6801221340012B09D07B6813
:101690001B68DA6880231B021A4080231B029A42CF
:1016A00001D1012300E00023002B5BD17B689B6B01
:1016B000374A134002221A437B689A637B681B688F
:1016C000DB6803221340FB607B681B68DA687B6879
:1016D0001B6803218A43DA607B681B689A687B6811
:1016E0001B68802109060A439A60FFF7F9FA030094
:1016F0003B611DE0FFF7F4FA02003B69D31A022BAD
:1017000016D97B681B689B68DB0FDA0780231B06F2
:101710009A420DD17B689B6B1222934310221A438D
:101720007B689A637B6834220021995401232AE064
:101730007B681B689B68DB0FDA0780231B069A42D5
:10174000D8D07B681B68D9687B681B68FA680A4335
:10175000DA607B689B6B0322934301221A437B6808
:101760009A6309E07B689B6B20221A437B689A632B
:101770001723FB1801221A707B6834220021995428
:101780001723FB181B781800BD4606B080BDC04665
:10179000FDFEFFFF80B582B000AF0200FB1D1A7096
:1017A000FB1D1B787F2B09D8FB1D1B781A001F23FC
:1017B0001A40044B012191400A001A60C046BD4600
:1017C00002B080BD00E100E090B583B000AF020040
:1017D0003960FB1D1A70FB1D1B787F2B28D82F4A00
:1017E000FB1D1B785BB29B08C0339B009B58FA1D06
:1017F0001278110003220A40D200FF2191400A0012
:10180000D2431A4011003B689B01FF221A40FB1D86
:101810001B78180003230340DB009A401F48FB1D80
:101820001B785BB29B080A43C0339B001A5031E01F
:101830001B4AFB1D1B7819000F230B40083B9B081C
:1018400006339B00D31804331B68FA1D127811006D
:1018500003220A40D200FF2191400A00D2431A40DD
:1018600011003B689B01FF221A40FB1D1B781800EA
:1018700003230340DB009A400948FB1D1B781C0032
:101880000F232340083B9B080A4306339B00C318E1
:1018900004331A60C046BD4603B090BD00E100E0CD
:1018A00000ED00E080B582B000AF78607B685A1E22
:1018B00080235B049A4201D3012310E00A4B7A682B
:1018C000013A5A6001235B4203211800FFF77CFFB5
:1018D000054B00229A60044B07221A60002318006F
:1018E000BD4602B080BDC04610E000E080B584B0C7
:1018F00000AFB9607A600F217B18021C1A70BA68B9
:101900007B181B785BB211001800FFF75DFFC04623
:10191000BD4604B080BD80B582B000AF0200FB1DA3
:101920001A70FB1D1B785BB21800FFF733FFC0462F
:10193000BD4602B080BD80B582B000AF78607B68E4
:101940001800FFF7AFFF03001800BD4602B080BDCE
:1019500080B586B000AF7860396000237B614FE1CD
:101960003B681B6801217A6991400A001340FB60C3
:10197000FB68002B00D140E13B685B680322134009
:10198000012B05D03B685B6803221340022B30D14A
:101990007B689B683B617B695B0003229A40130074
:1019A000DA433B6913403B613B68DA687B695B0063
:1019B0009A4013003A6913433B617B683A699A6025
:1019C0007B685B683B6101227B699A401300DA43C4
:1019D0003B6913403B613B685B681B0901221A406D
:1019E0007B699A4013003A6913433B617B683A690B
:1019F0005A603B685B6803221340032B17D07B6857
:101A0000DB683B617B695B0003229A401300DA4389
:101A10003B6913403B613B689A687B695B009A4075
:101A200013003A6913433B617B683A69DA603B68AB
:101A30005B6803221340022B23D17B69DA087B68A1
:101A400008329200D3583B617B69072213409B0008
:101A50000F229A401300DA433B6913403B613B6815
:101A60001A697B6907210B409B009A4013003A6971
:101A700013433B617B69DA087B680832920039695D
:101A8000D1507B681B683B617B695B0003229A40F5
:101A90001300DA433B6913403B613B685B680322F8
:101AA0001A407B695B009A4013003A6913433B611B
:101AB0007B683A691A603B685A68C0239B021340EE
:101AC00000D19AE0544B9A69534B01210A439A6121
:101AD000514B9B6901221340BB60BB684F4A7B6935
:101AE0009B0802339B009B583B617B690322134098
:101AF0009B000F229A401300DA433B6913403B617D
:101B00007A689023DB059A4213D07B68444A93425B
:101B10000DD07B68434A934207D07B68424A934288
:101B200001D1032306E0052304E0022302E00123A0
:101B300000E000237A6903210A40920093403A6949
:101B400013433B6135497B699B0802339B003A692B
:101B50005A50364B9B683B61FB68DA433B69134044
:101B60003B613B685A6880235B03134003D03A69AA
:101B7000FB6813433B612D4B3A699A602B4BDB6842
:101B80003B61FB68DA433B6913403B613B685A6841
:101B900080239B03134003D03A69FB6813433B61E6
:101BA000224B3A69DA60214B5B683B61FB68DA43A0
:101BB0003B6913403B613B685A6880239B0213409A
:101BC00003D03A69FB6813433B61184B3A695A608A
:101BD000164B1B683B61FB68DA433B6913403B6172
:101BE0003B685A6880235B02134003D03A69FB6864
:101BF00013433B610D4B3A691A607B6901337B618A
:101C00003B681A687B69DA40131E00D0A8E6C0461C
:101C1000C046BD4606B080BD001002400000014035
:101C20000004004800080048000C0048000401407F
:101C300080B584B000AF78600A00BB1C1A807B6856
:101C40001B69BA1C1288134004D00F23FB18012211
:101C50001A7003E00F23FB1800221A700F23FB18E1
:101C60001B781800BD4604B080BD80B582B000AFBF
:101C7000786008001100BB1C021C1A807B1C0A1C27
:101C80001A707B1C1B78002B04D0BB1C1A887B6845
:101C90009A6103E0BB1C1A887B689A62C046BD4605
:101CA00002B080BD80B588B000AF78607B68002B43
:101CB00001D1012301E37B681B680122134000D19D
:101CC0008DE0C34B5B680C221340042B0ED0C04B3D
:101CD0005B680C221340082B16D1BD4B5A68802339
:101CE0005B021A4080235B029A420DD1B84B1A68FE
:101CF00080239B02134000D170E07B685B68002B5F
:101D000000D06BE00123D8E27B685B68012B07D130
:101D1000AF4B1A68AE4B802149020A431A602FE08C
:101D20007B685B68002B0CD1A94B1A68A84BA949AA
:101D30000A401A60A64B1A68A54BA7490A401A60C8
:101D40001EE07B685B68052B0ED1A14B1A68A04B87
:101D50008021C9020A431A609D4B1A689C4B80215E
:101D600049020A431A600BE0994B1A68984B99494B
:101D70000A401A60964B1A68954B97490A401A60B8
:101D80007B685B68002B14D0FEF7AAFF0300BB61E1
:101D900008E0FEF7A5FF0200BB69D31A642B01D946
:101DA00003238AE28A4B1A6880239B021340F0D0F7
:101DB00015E0FEF795FF0300BB6108E0FEF790FF1A
:101DC0000200BB69D31A642B01D9032375E2804B4F
:101DD0001A6880239B021340F0D100E0C0467B6864
:101DE0001B680222134000D169E0794B5B680C222A
:101DF00013400BD0764B5B680C221340082B1CD190
:101E0000734B5A6880235B02134016D1704B1B68DA
:101E10000222134005D07B68DB68012B01D001232F
:101E20004BE26B4B1B68F822934319007B681B69DC
:101E3000DA00674B0A431A6041E07B68DB68002BDD
:101E400024D0634B1A68624B01210A431A60FEF7E3
:101E500047FF0300BB6108E0FEF742FF0200BB69D9
:101E6000D31A022B01D9032327E2594B1B68022204
:101E70001340F1D0564B1B68F822934319007B683E
:101E80001B69DA00524B0A431A6018E0504B1A687B
:101E90004F4B01218A431A60FEF722FF0300BB610A
:101EA00008E0FEF71DFF0200BB69D31A022B01D91F
:101EB000032302E2464B1B6802221340F1D17B68E8
:101EC0001B680822134036D07B68DB69002B19D0D1
:101ED0003F4B5A6A3E4B01210A435A62FEF700FF0C
:101EE0000300BB6108E0FEF7FBFE0200BB69D31AEA
:101EF000022B01D90323E0E1354B5B6A0222134038
:101F0000F1D018E0324B5A6A314B01218A435A62B0
:101F1000FEF7E6FE0300BB6108E0FEF7E1FE02000B
:101F2000BB69D31A022B01D90323C6E1284B5B6A94
:101F300002221340F1D17B681B680422134000D1B8
:101F4000B4E01F203B1800221A70214BDA6980236D
:101F50005B05134010D11E4BDA691D4B80214905EA
:101F60000A43DA611A4BDA6980235B051340FB6090
:101F7000FB683B1801221A70184B1A6880235B001B
:101F800013401AD1154B1A68144B802149000A439B
:101F90001A60FEF7A5FE0300BB6108E0FEF7A0FE95
:101FA0000200BB69D31A642B01D9032385E10B4BD3
:101FB0001A6880235B001340F0D07B689B68012B7C
:101FC0000ED1034B1A6A024B01210A431A6235E013
:101FD00000100240FFFFFEFFFFFFFBFF007000400C
:101FE0007B689B68002B0CD1B64B1A6AB54B01215C
:101FF0008A431A62B34B1A6AB24B04218A431A62AB
:102000001CE07B689B68052B0CD1AE4B1A6AAD4B6C
:1020100004210A431A62AB4B1A6AAA4B01210A43F4
:102020001A620BE0A74B1A6AA64B01218A431A6277
:10203000A44B1A6AA34B04218A431A627B689B68EB
:10204000002B14D0FEF74CFE0300BB6109E0FEF745
:1020500047FE0200BB69D31A9B4A934201D903236E
:102060002BE1984B1B6A02221340F0D013E0FEF7DD
:1020700037FE0300BB6109E0FEF732FE0200BB69D8
:10208000D31A914A934201D9032316E18D4B1B6A5F
:1020900002221340F0D11F23FB181B78012B05D11E
:1020A000884BDA69874B89490A40DA617B681B688B
:1020B0001022134063D07B685B69012B2AD1814BCE
:1020C0005A6B804B04210A435A637E4B5A6B7D4BFB
:1020D00001210A435A63FEF703FE0300BB6108E0D7
:1020E000FEF7FEFD0200BB69D31A022B01D90323C0
:1020F000E3E0744B5B6B02221340F1D0714B5B6BDE
:10210000F822934319007B689B69DA006D4B0A4300
:102110005A6334E07B685B69053311D1694B5A6BB4
:10212000684B04218A435A63664B5B6BF8229343E6
:1021300019007B689B69DA00624B0A435A631EE010
:10214000604B5A6B5F4B04210A435A635D4B5A6BD9
:102150005C4B01218A435A63FEF7C2FD0300BB6159
:1021600008E0FEF7BDFD0200BB69D31A022B01D9BE
:102170000323A2E0534B5B6B02221340F1D17B6837
:102180001B6A002B00D197E04E4B5B680C2213407A
:10219000082B00D16BE07B681B6A022B4CD1494BAA
:1021A0001A68484B4A490A401A60FEF799FD030035
:1021B000BB6108E0FEF794FD0200BB69D31A022B55
:1021C00001D9032379E03F4B1A6880239B04134015
:1021D000F0D13C4BDB6A0F22934319007B68DA6A2B
:1021E000384B0A43DA62374B5B683A4A13401900AE
:1021F0007B689A6A7B685B6A1A43324B0A435A606F
:10220000304B1A682F4B802149040A431A60FEF7AD
:1022100067FD0300BB6108E0FEF762FD0200BB69D9
:10222000D31A022B01D9032347E0264B1A688023D7
:102230009B041340F0D03FE0224B1A68214B244905
:102240000A401A60FEF74CFD0300BB6108E0FEF790
:1022500047FD0200BB69D31A022B01D903232CE0EE
:10226000184B1A6880239B041340F0D124E07B684C
:102270001B6A012B01D101231FE0124B5B687B61BC
:10228000104BDB6A3B617A6980235B021A407B68F2
:102290005B6A9A420ED13B690F221A407B68DB6A67
:1022A0009A4207D17A69F0239B031A407B689B6AA4
:1022B0009A4201D0012300E000231800BD4608B077
:1022C00080BDC0460010024088130000FFFFFFEFF2
:1022D000FFFFFFFEFFFFC2FF80B584B000AF786054
:1022E00039607B68002B01D10123B3E05B4B1B6895
:1022F000012213403A689A4211D9584B1B680122B7
:1023000093431900554B3A680A431A60534B1B68B4
:10231000012213403A689A4201D001239AE07B6877
:102320001B680222134015D07B681B6804221340EF
:1023300006D04B4B5A684A4BE021C9000A435A6009
:10234000474B5B68F022934319007B689A68444BC3
:102350000A435A607B681B680122134040D07B68A7
:102360005B68012B07D13E4B1A6880239B02134008
:1023700014D101236EE07B685B68022B07D1384BD8
:102380001A6880239B04134008D1012362E0344B78
:102390001B680222134001D101235BE0304B5B68D4
:1023A0000322934319007B685A682D4B0A435A60F5
:1023B000FEF796FC0300FB6009E0FEF791FC0200CB
:1023C000FB68D31A274A934201D9032342E0244BE6
:1023D0005B680C221A407B685B689B009A42ECD1D8
:1023E0001E4B1B68012213403A689A4211D21B4BC4
:1023F0001B68012293431900184B3A680A431A607C
:10240000164B1B68012213403A689A4201D00123FF
:1024100020E07B681B680422134009D0104B5B68E6
:10242000114A134019007B68DA680D4B0A435A6061
:1024300000F020F801000A4B5B681B090F221340D3
:102440000A4AD35C0A00DA40094B1A600320FEF7FF
:1024500001FC00231800BD4604B080BD00200240EE
:102460000010024088130000FFF8FFFF90250008CD
:102470002800002080B586B000AF0023FB60002359
:10248000BB6000237B6100237B6000233B61204B0A
:102490005B68FB60FB680C221340042B02D0082B06
:1024A00003D02CE01B4B3B612CE0FB689B0C0F2204
:1024B0001340194AD35C7B60154BDB6A0F22134033
:1024C000164AD35CBB60FA6880235B02134009D0D4
:1024D000B9681048FDF718FE03001A007B685343E3
:1024E0007B6109E079680A005201521A93019B1A34
:1024F000DB005B181B027B617B693B6102E0054BE3
:102500003B61C0463B691800BD4606B080BDC04671
:102510000010024000127A00A0250008B025000833
:1025200003008218934200D1704719700133F9E714
:1025300070B500260C4C0D4D641BA410A64209D1A9
:10254000002600F019F80A4C0A4D641BA410A6429C
:1025500005D170BDB300EB5898470136EEE7B300E4
:10256000EB5898470136F2E7C0250008C02500085F
:10257000C4250008C0250008F8B5C046F8BC08BC52
:102580009E467047F8B5C046F8BC08BC9E467047EA
:102590000000000000000000010203040607080913
:1025A00002030405060708090A0B0C0D0E0F101094
:1025B0000102030405060708090A0B0C0D0E0F1093
:0425C000E900000826
:0425C400C10000084A
:1025C80002030102030102030301020301020301E2
:1025D80002030102020301020301020301020301D3
:1025E800010203010203010200127A000400000044
:0425F80001000000DE
:0400000508000BD90B
:00000001FF
